S00D0000424C494E4B2E73726563A7
S11300000C942A000C9434000C9434000C943400A6
S11300100C9434000C9434000C9434000C9434008C
S11300200C9434000C9434000C9434000C9434007C
S11300300C9434000C9434000C9434000C9434006C
S11300400C9434000C9434000C9434000C9434005C
S11300500C94340011241FBECFE5D8E0DEBFCDBF21
S11300600E9436000C9447000C9400008FEF87BB6D
S113007088BBE3E2F4EF3197F1F700C0000018BA4F
S1130080E3E2F4EF3197F1F700C00000F1CFF89408
S1050090FFCF9C
S9030000FC
